:020000020000FC
:040000000C94340028
:040008000C945900FB
:10006800F8940FEF0DBF08E00EBF259A53982D980E
:1000780000E00093000108E000936900E99AE8981D
:10008800789464E60E9498000091000111E001173D
:1000980031F02D9A01E0009300010C9457002D983F
:1000A80000E0009300010C9445000F931F932F93D9
:1000B8003F934F935F936F930FB70F936AE00E943C
:1000C80098002D986AE00E9498002D9A6AE00E9494
:1000D80098002D986AE00E9498002D9A6AE00E9484
:1000E80098002D986AE00E9498002D9A6AE00E9474
:1000F80098002D980091000111E0011731F02D981A
:1001080000E0009300010C948D002D9A01E000930B
:1001180000010F910FBF6F915F914F913F912F9108
:100128001F910F91E19A189500E010E020E031E06E
:1001380042E354E6EE0FEE0FEE0FEE0FEE0FEE0F6A
:10014800EE0FEE0FEE0FEE0FEE0FEE0FEE0FEE0FBF
:10015800EE0FEE0FEE0FEE0FEE0FEE0FEE0FEE0FAF
:10016800030F041731F0151751F0261761F00C949E
:100178009E00EE0FEE0F00E0130F0C949E0010E0AF
:08018800230F0C949E00089562
:00000001FF
