:020000020000FC
:040000000C94340028
:040008000C945C00F8
:10006800F8940FEF0DBF08E00EBF259A53982D980E
:1000780000E00093000108E000936900E99AE8981D
:100088007894EE0FEE0FEE0F64E60E948F00009159
:10009800000111E0011731F02D9A01E000930001F1
:1000A8000C945A002D9800E0009300010C94450030
:1000B8000F931F932F933F934F935F936F930FB7B4
:1000C8000F936AE00E948F002D986AE00E948F00CB
:1000D8002D9A6AE00E948F002D986AE00E948F0096
:1000E8002D9A6AE00E948F002D986AE00E948F0086
:1000F8002D9A6AE00E948F002D980F910FBF6F9183
:100108005F914F913F912F911F910F91E19AEE0FBF
:10011800EE0FEE0F189500E010E020E031E042E32A
:1001280054E6EE0FEE0FEE0FEE0FEE0FEE0FEE0FA2
:10013800EE0FEE0FEE0FEE0FEE0FEE0FEE0FEE0FCF
:10014800EE0FEE0FEE0FEE0FEE0FEE0FEE0F030FAA
:10015800041731F0151751F0261761F00C9495002B
:10016800EE0FEE0F00E0130F0C94950010E0230F34
:060178000C9495000895AF
:00000001FF
